:10000000FFFF00EE6DF0F00EF66E3A0EF76E10EE9A
:1000100028F022EC00F000EE00F06D0EEE6AE8062B
:10002000FDE101EE00F011EE00F01BEC00F0000E1F
:10003000F86E5FEF11F0EE6AE550E150FCE1E2503E
:10004000FAE112000900F5CFEEFFE550E150FAE1C8
:06005000E250F8E112008D
:100F9800FFFF05EC0DF00EEF0BF0FFFFFFFF43EC3A
:100FA80008F00EEF0BF0FFFFFFFFE8CFD9FF8284B8
:100FB800D950F9EF07F0FFFFFFFF04EC08F0D8EC79
:100FC8000FF0D1EF11F0FFFFFFFFE8CFF3FF82949E
:100FD800F350F9EF07F0FFFFFFFF82843F51F9EC70
:100FE80007F03E51F9EF07F0FFFFFFFFE8CFE9FFF9
:100FF800E9CFC9FFFFFFC7B01200FFFFFBD7FFFF14
:10100800FFFF800E946E826A926893689568070E57
:10101800966EF19E070CFFFFFFFF36C0F6FF37C044
:10102800F7FF364A372A0800FFFFF5501200FFFF86
:10103800FFFFE8CFD9FF010ED96002D06A9602D02F
:10104800FFFF6A86FFFF1200FFFFFFFF10EC08F0AA
:10105800596E5950800B626E6250D8A4596C05EFD6
:101068000DF0FFFFFFFF10EC08F0D96EFFFFD90667
:10107800D92803E005EC0DF0F9D71200FFFFFFFFB8
:10108800D7EC09F017C24DF018C24EF019C24FF054
:101098001AC250F0C6EF0CF0FFFFFFFF10EC08F08B
:1010A800D96ED90455EC09F026514D1227514E122C
:1010B80028514F1229515012C6EF0CF0FFFFFFFFC5
:1010C80000C263F001C264F002C25DF003C245F0E1
:1010D80004C260F005516024076F07056B6E1200AB
:1010E800FFFFFFFFF26AF06A9D6AA06AD09E969899
:1010F800D59ECD90CA94B190BD6ABA6AAB9EC29093
:10110800070EC16ED29804EF08F0FFFFFFFF10EC46
:1011180008F0D96ED90455EC09F0261F271F281F9F
:10112800291F26514D1627514E1628514F16295161
:101138005016C6EF0CF0FFFFFFFFFFFF10510F1115
:101148000FE0310E116FBA0EFFFFE82EFDD7112FF9
:10115800FBD700D0040002010F07D8A01007EDD775
:101168001200FFFFFFFFE8CFE9FF080EF36ED96A10
:10117800FFFFD890E934D934D96ED890E9361651A2
:10118800D95C02E31651D95EF32EF2D7D95012007A
:10119800FFFFFFFFF36AF46A32A104D03451F3264B
:1011A8003551F422FFFFD89034373537D890333390
:1011B800323333513211F0E1F3CF32F2F4CF33F25C
:1011C8001200FFFFFFFFD96A02010C3B0D3B0F0E17
:1011D8000C170D51F00B0C130F0E0D17FFFF0D51CF
:1011E8000C1105E0D92AD8900D330C33F7D7D9065E
:1011F800D9501200FFFFFFFFD7EC09F0171F181F87
:10120800191F1A1F17514D1618514E1619514F16FE
:101218001A515016D7EC09F017514D1218514E12A9
:1012280019514F121A515012C6EF0CF0FFFFFFFF71
:10123800E8CFD9FFF36AF46AFFFF0101000EF32437
:10124800E96E010EF420EA6ED9CFEFFFF34AF42AD3
:10125800F450800A7F0F000ED8B4F35CD8B01200A7
:10126800FFFFEAD7FFFFFFFFE00E5B6E5C681F0E13
:10127800516E526A1C0E1D6F1E6B440E1B6F1C6B49
:10128800320E196F1A6B3A0E176F000E186B46EC78
:1012980012F08F0E0201146F156B340E87EF0DF0EC
:1012A800FFFFFFFFE8CFE9FF010E02012A6F2B6B5A
:1012B8002C6B2D6BE950E82A06D0FFFFD8902A370F
:1012C8002B372C372D37FFFFE82EF7D72AC226F207
:1012D8002BC227F22CC228F22DC229F21200FFFFDE
:1012E800FFFFD96AFFFF84B4FDD7040E0F6F000E0D
:1012F800106BA0EC08F0FFFF84B40CD0020E0F6F47
:10130800000E106BA0EC08F0D92A320ED964F3D77E
:10131800010E02D0FFFF000EFFFF1200FFFFFFFFCC
:101328008950F00BF36E8A50F00BD96E8C503F0B3E
:10133800E96E1F510F0BF3121FB9D9861FBBD98451
:101348001FBDD9821FBFD98020B1E98E20B3E98C97
:10135800F3CF89FFD9CF8AFFE9CF8CFF1200FFFFB7
:10136800FFFFF36AF46A1FC221F220C222F20201CF
:1013780021C2F6FF22C2F7FF214B222B0800FFFFF4
:10138800F5500BE05D50F326000EF422F450800A6D
:10139800780F010ED8B4F35CEAE3F3CF1FF2F4CF71
:1013A80020F21200FFFFFFFFD96AF36A02011B6BEC
:1013B8001C6B1D6B1E6BFFFF4450D95C0DE21B0EAE
:1013C800F324E96EEA6A020EEA2210EC08F0EF6EE6
:1013D800F32A080ED926EFD71BC217F21CC218F23F
:1013E8001DC219F21EC21AF21200FFFFFFFF800E83
:1013F80002013C6F3D6B3A6F000E3B6B386B396BEB
:10140800366B376B51EC0EF0F36AF46AFFFF51C08C
:101418003EF252C03FF2F0EC07F0F34AF42AF450DF
:10142800800A400F000ED8B4F35CD8B01200FFFF5A
:10143800EDD7FFFFFFFF8950F80BE96E8A50F80BD4
:10144800F36E8C503B0BF46E1FB1E9801FB3E98437
:101458001FB5E9821FB7F48E1FB9F3801FBBF38253
:101468001FBDF48C1FBFF38420B1F484E9CF89FF3A
:10147800F3CF8AFFF4CF8CFF1200FFFFFFFFE8CF06
:101488000CF202010D6BFFFF0E6BFFFF0EC20FF295
:101498000D510EEC0CF00E2B0F0E0E65F6D70D2B22
:1014A8000D65F1D71F0E516E526A060E1D6F1E6B29
:1014B8000CC21BF21C6B5F0E196F1A6B030E176FB1
:1014C800186B46EF12F0FFFFFFFFE8CF14F24C0E47
:1014D800E16E4C6A1AD0FFFFE1060A0E166F14512E
:1014E800B6EC08F0156F300E1527E150E96EEA6A80
:1014F80015C2EFFF0A0E1D6F000E1E6B14C21BF201
:101508001C6BCAEC0DF01B51146FFFFF1467E3D777
:10151800E1501200FFFFFFFFE8CFD9FFD9500F0BB2
:10152800C66E01A101D0C68801B101D0C69800A13C
:1015380001D0C78E00B101D0C79E02A101D0C78CCF
:1015480002B101D0C79C04D0928A9486C79E07D066
:10155800FFFFD950040AF8E0010AF7E09496FFFF6C
:10156800949A9488C68A1200FFFFFFFFE8CFD9FF3C
:10157800D950030B5E6E0FD0080E05D0680E03D04D
:10158800C80E01D0A80EFFFF6A6E800E336E346A53
:101598002D6E2E6A09D0FFFF5E50EEE0010AEEE0E4
:1015A800030AEEE0010AEEE0FFFF6C501CEC08F0C5
:1015B800360EE8EC07F06A50D8EF07F0FFFFFFFFA0
:1015C8005168070E526EFAEC09F002C205F203C226
:1015D80006F277EC15F0000914E0D1EC11F000A246
:1015E80007D000C205F201C206F21AEC17F007D0C4
:1015F800FFFF00C205F201C206F242EC16F0FFFF3F
:10160800046F04EC08F00451D8A437EC09F0E4EFB7
:101618000EF0FFFFFFFFD7EC09F017C20BF218C25C
:101628000CF219C20DF21AC20EF246EC0DF00E5170
:10163800321808E10D51311805E10C51301802E15A
:101648000B512F180EE00B512F18406E0C5130180B
:10165800416E0D513118426E0E513218436E000E14
:1016680001D0010EFFFF1200FFFFFFFF01C207F2CA
:1016780002C208F2071F081F074B082B0351075F18
:101688000451085B800E0725056F000E0821066FC0
:1016980006BF15D0330EE8EC07F001C23EF202C2D5
:1016A8003FF2F0EC07F005C23EF206C23FF2F0EC62
:1016B80007F003C23EF204C23FF2F0EC07F0FFFF6E
:1016C8001200FFFFFFFFE16A1CAF06D01B6D1C1F55
:1016D800D8B01C2B010EE16EFFFF1EAF04D01D6DAC
:1016E8001E1FD8B01E2BFFFF1E511D1119E0010E41
:1016F800D96EFFFF1EBF05D0D8901D371E37D92AD7
:10170800F8D7FFFF1D511B5D1E511C5904E31D51E5
:101718001B5F1E511C5BD8901E331D33D92EF1D789
:10172800E15004E01B6D1C1FD8B01C2B1200FFFFFA
:10173800FFFF696619D08C888A8E1AC21FF21BC2F5
:1017480020F21EEC0AF08A9E8C821CC21FF21DC277
:1017580020F21EEC0AF08C9800F0000E83BA010EFD
:10176800D96E8C888A8E19D0FFFF8C8A8C821AC217
:101778001FF21BC220F293EC09F08C928C861CC2DB
:101788001FF21DC220F293EC09F08C9A00F0000EB3
:1017980083B8010ED96E8C8A8C82FFFFD950120053
:1017A800FFFFFFFF1B6B1C6B1D6B1E6BF36AFFFFBC
:1017B8004450F35C25E2F35055EC09F01751261517
:1017C8001F6F18512715206F19512815216F1A51AD
:1017D8002915226F22511F11201121110FE0F350FA
:1017E800010FE96EEA6AEF5055EC09F026511B1318
:1017F80027511C1328511D1329511E13F32AD7D71B
:101808001BC217F21CC218F21DC219F21EC21AF22C
:101818001200FFFFFFFFE8CFD9FFD950050D0D0ECD
:10182800F324126F000EF420136F0F51050D020EF2
:10183800F324106F000EF420116FD950100D000E14
:10184800F3240201146F010EF420156F0F511425B3
:10185800E96E000E1521EA6EEF5003E0516AF80EAA
:1018680003D0E00E516E070EFFFF526E040E1D6F7F
:101878001E6B1B6F1C6B12C219F213C21AF210C234
:1018880017F211C218F246EF12F0FFFFFFFF809621
:1018980036C0F6FF37C0F7FF0800FFFFF5CF69F045
:1018A800364A372A36C0F6FF37C0F7FF0800FFFF71
:1018B800F5CFD9FFD9CF0CF2010E0D6F0E6B0C2BA3
:1018C80004D0FFFFD8900D370E37FFFF0C2FF9D744
:1018D8000DC23EF00EC23FF08986010E0F6F000E5A
:1018E800106BA0EC08F0E16AFFFF000E02011C6B10
:1018F8001D6B1A6B1B6B9CEC0BF0E12A0F0EE1645D
:10190800F3D70F0CFFFFFFFF23C225F224C226F2F4
:10191800FFFF02012551F66EE96E050EEA6E2651AB
:10192800EA6403D0EA6EEF5004D0F76E0800FFFFB8
:10193800F550000923E002012551F66EE96E050E07
:10194800EA6E2651EA6403D0EA6EEF5004D0F76ECF
:101958000800FFFFF55002012B6F21C229F222C2B5
:101968002AF21FC227F220C228F2EFEC10F0254B12
:10197800262B5D501F27000E2023CAD702011F51B6
:101988001200FFFFFFFF38504D1639504E163A50DF
:101998004F163B505016485055EC09F04D50261143
:1019A800136F4E502711146F4F502811156F505058
:1019B8002911166F5A5055EC09F0261F271F281FAA
:1019C800291F26511315176F27511415186F285101
:1019D8001515196F295116151A6FD5EC0BF017C28A
:1019E8000FF218C210F219C211F21AC212F20FC283
:1019F80089FF10C28AFF11C28CFF12C28DFF12002C
:101A0800FFFFFFFF62501DE0590455EC09F0265115
:101A18004D1227514E1228514F1229515012C6EC1F
:101A28000CF0590455EC09F0261F271F281F291F01
:101A380026514D1627514E1628514F16295150162A
:101A48001CD0590455EC09F0261F271F281F291FF1
:101A580026514D1627514E1628514F16295150160A
:101A6800C6EC0CF0590455EC09F026514D122751DB
:101A78004E1228514F1229515012FFFF00F0C6EFA5
:101A88000CF0FFFFFFFF80CF17F281CF18F283CF52
:101A980019F284CF1AF22F6A306A316A326AD96A27
:101AA800FFFF4450D95C25E2D950010FE96EEA6A7C
:101AB800EF5055EC09F0175126151B6F18512715D3
:101AC8001C6F195128151D6F1A5129151E6F1E51AB
:101AD8001B111C111D110BE0D95055EC09F02651B2
:101AE8002F12275130122851311229513212D92A76
:101AF800D7D755502F1656503016575031165850C4
:101B080032161200FFFFFFFFE8CF16F2D96A37D06E
:101B1800FFFFD950020DF3501425E96E000E152170
:101B2800EA6EEECF17F2EDCF18F217C2F6FF18C221
:101B3800F7FF0800FFFFF55026E017C21FF218C292
:101B480020F2B4EC09F0203520311A6F1F31196FDB
:101B58001951E16E17C223F218C224F216C221F2FB
:101B6800226BE1505C081F6F000ED8A0E82A00081D
:101B7800206F87EC0CF0E16E0C0E1627D92AFFFFB8
:101B8800030ED964C5D7E1501200FFFFFFFFD96AE1
:101B98001EAF06D01D6D1E1FD8B01E2B010ED96EAC
:101BA800FFFF1CAF06D01B6D1C1FD8B01C2B010EED
:101BB800D91AFFFFF36AF46A1E511D111EE0010EC7
:101BC800E96EFFFFD8901EBF06D01D371E37E92AE1
:101BD800F8D7FFFFD890FFFFF336F4361D511B5D91
:101BE8001E511C5905E31D511B5F1E511C5BF380E0
:101BF800D8901E331D33E92EECD7D95004E0F36C8E
:101C0800F41ED8B0F42AF3CF1BF2F4CF1CF2120062
:101C1800FFFFFFFF69661FD08C888A8E1AC21FF2E9
:101C28001BC220F21EEC0AF08A9E1E5102E08C862E
:101C380001D08C96FFFF8C921CC21FF21DC220F2AD
:101C48001EEC0AF08C9800F08A8E8C828A9E00F036
:101C58008C888A8E1FD0FFFF8C8A8C821AC21FF252
:101C68001BC220F293EC09F08C928C961E5102E074
:101C78008C8401D08C94FFFF1CC21FF21DC220F27D
:101C880093EC09F08C9A00F08C828C868C9200F090
:101C98008C8A8C82FFFF1200FFFFFFFF2A0EE8EC00
:101CA80007F05E5003E0010E5E640DD036C23EF2CE
:101CB80037C23FF2F0EC07F03AC23EF23BC23FF2C5
:101CC800F0EC07F00DD0FFFF36C23EF237C23FF20C
:101CD800F0EC07F03AC23EF23BC23FF2F0EC07F0FC
:101CE800FFFF2B0EE8EC07F05E660DD038C23EF21F
:101CF80039C23FF2F0EC07F03CC23EF23DC23FF27F
:101D0800F0EC07F00DD0FFFF38C23EF239C23FF2C7
:101D1800F0EC07F03CC23EF23DC23FF2F0EC07F0B7
:101D2800FFFF2C0EE8EF07F0FFFFFFFF46EC0DF07A
:101D3800D7EC09F017C20BF218C20CF219C20DF257
:101D48001AC20EF20B512F14406E0C513014416E12
:101D58000D513114426E0E513214436E43504010EF
:101D68004110421027E1D7EC09F017C20FF218C250
:101D780010F219C211F21AC212F20F512F14136F76
:101D880010513014146F11513114156F125132144F
:101D9800166F0F511319406E10511419416E1151DD
:101DA8001519426E12511619436E435040104110D6
:101DB800421002E0000E01D0010EFFFF1200FFFFEB
:101DC800FFFFFFFF81BA0CD0030E02010F6F000E58
:101DD800106BA0EC08F0FFFF81AAFDD7010E3BD0E5
:101DE800FFFF81B20CD0030E02010F6F000E106BC3
:101DF800A0EC08F0FFFF81A2FDD7020E2CD0FFFF58
:101E080081B80CD0030E02010F6F000E106BA0EC0E
:101E180008F0FFFF81A8FDD7040E1DD0FFFF81B693
:101E28000CD0030E02010F6F000E106BA0EC08F02F
:101E3800FFFF81A6FDD7080E0ED0FFFF84B4C1D7DF
:101E4800030E02010F6F000E106BA0EC08F0FFFFED
:101E580084A4FDD7100EFFFF1200FFFFFFFF1BC277
:101E680025F21CC226F219C223F21AC224F217C2A2
:101E780021F218C222F292EC10F01DC225F21EC205
:101E880026F219C223F21AC224F217C221F218C28A
:101E980022F235EC10F01BC225F21CC226F219C240
:101EA8001FF21AC220F21D511F271E512023FF0EB8
:101EB8001F25236FFF0E2021246F17C221F218C29D
:101EC80022F292EC10F01DC225F21EC226F219C2AF
:101ED80023F21AC224F217C21FF218C220F21B51B1
:101EE8001F271C512023FF0E1F25216FFF0E2021C5
:101EF800226F35EF10F0FFFFFFFF2AC230F22BC22E
:101F080031F22D512825326F000E2921336FFF0E33
:101F180032253C6FFF0E33213D6F2C512625346F3F
:101F2800000E2721356FFF0E34253A6FFF0E35213D
:101F38003B6F28C238F229C239F226C236F227C2CC
:101F480037F251EC0EF02BD0FFFFD96AFFFF2C516E
:101F5800D95C24E2D950070B03E0D890F4360AD0B4
:101F680030C2F6FF31C2F7FF0800FFFFF5CFF4FFDC
:101F7800304B312BFFFFF4AE07D02EC23EF22FC2FA
:101F88003FF2F0EC07F007D0FFFF51C03EF252C01D
:101F98003FF2F0EC07F0FFFFD92AD8D72D07FFFF53
:101FA8002D67D2D71200FFFFFFFFD7EC09F017C249
:101FB80038F018C239F019C23AF01AC23BF038C0EA
:101FC8000BF239C00CF23AC00DF23BC00EF20B1FF7
:101FD8000C1F0D1F0E1F0BC255F00CC256F00DC280
:101FE80057F00EC258F05A5055EC09F0261F271F1B
:101FF800281F291F2651551627515616285157169E
:1020080029515816485055EC09F0261F271F281F3C
:10201800291F26515516275156162851571629514A
:1020280058165A5055EC09F0261F271F281F291F3C
:10203800265138162751391628513A1629513B1678
:10204800485055EC09F0261F271F281F291F265125
:1020580038162751391628513A1629513B161200BD
:10206800FFFFFFFF2251800A276F3350215D345054
:10207800800A275950E22451800A276F2D50235D8A
:102088002E50800A275947E223C227F224C228F299
:102098002551272726512823FF0E2725296FFF0EB4
:1020A80028212A6F2A51800A2B6F2D50295D2E5026
:1020B800800A2B5906E323512D5C256F24512E5895
:1020C800266F23C227F224C228F22551272726513A
:1020D8002823FF0E27253C6FFF0E28213D6F21C2C4
:1020E8003AF222C23BF223C238F224C239F221C2A8
:1020F80036F222C237F251EC0EF0FFFF2507D8A0C6
:102108002607020126BF07D05BC03EF25CC03FF243
:10211800F0EC07F0F2D7FFFF1200FFFFFFFF22519C
:10212800800A276F3350215D3450800A275950E2C6
:102138002451800A276F2D50235D2E50800A27597D
:1021480047E221C227F222C228F225512727265129
:102158002823FF0E2725296FFF0E28212A6F2A51D1
:10216800800A2B6F3350295D3450800A2B5906E3BF
:102178002151335C256F22513458266F23C23CF21B
:1021880024C23DF221C227F222C228F22551272774
:1021980026512823FF0E27253A6FFF0E28213B6F73
:1021A80023C238F224C239F221C236F222C237F2EF
:1021B80051EC0EF0FFFF2507D8A02607020126BF25
:1021C80007D05BC03EF25CC03FF2F0EC07F0F2D7FC
:1021D800FFFF1200FFFFFFFFBF0E2B6502D0600E4E
:1021E8002B5FFFFF60502B5D03E32B516B6002D028
:1021F8002E0E2B6FFFFF45C034F2356B60502B5D00
:10220800326F336BD8A03307CDEC08F0325163241A
:102218002C6F335164202D6F455029252E6F000EE9
:102228002A212F6FFF0E2E253C6FFF0E2F213D6FA9
:102238005D502725306F000E2821316FFF0E3025A5
:102248003A6FFF0E31213B6F29C238F22AC239F2A8
:1022580027C236F228C237F251EC0EF0F46AFFFFBB
:102268004550F45C26E22CC2F6FF2DC2F7FF0800A9
:10227800FFFFF5CF2BF22C4B2D2BF36AFFFF5D50A0
:10228800F35C15E22BAF07D05BC03EF25CC03FF2B7
:10229800F0EC07F007D0FFFF51C03EF252C03FF20A
:1022A800F0EC07F0FFFFD8902B37F32AE7D7F42A92
:1022B800D6D71200FFFFFFFF75EC08F0010E0201F0
:1022C800026F000E016B006B8FEC0AF0F3EC19F053
:1022D8007F0E056F066B200E046F0C0E036F080E41
:1022E800026F180E006F3B0E016F63EC08F0E00EF2
:1022F8005B6E5C681F0E516E526AA80E236F760ED5
:10230800246F000E216B226B1F6B206B87EC0CF087
:10231800550E236F770E246F0C0E216F000E226B63
:102328001F6B206B87EC0CF0140E0F6F000E106BF8
:10233800A0EC08F084B417D05B685C68516AF80EAA
:10234800526E5C0E236F7A0E246F3A0E216F226B49
:10235800080E1F6F000E206B87EC0CF0FFFF84A4A3
:10236800FDD7008002D0FFFF0090FFFFF70E006F3F
:10237800780E016F3DEC1BF0FFFF65C002F266C0EE
:1023880003F267C000F268C001F2E3EC0AF0000E45
:10239800006B016B3DEC1BF0EFD7FFFFF18E829CC9
:1023A8002F6A306A316A326A4D6A4E6A4F6A506AD9
:1023B80055C017F256C018F257C019F258C01AF291
:1023C800D5EC0BF017C20BF218C20CF219C20DF2C1
:1023D8001AC20EF25A50010FE96EEA6AEF5055EC34
:1023E80009F0261F271F281F291F26510B172751C1
:1023F8000C1728510D1729510E174850030A03E0EE
:102408000E0E5A6414D04850010FE96EEA6AEF5074
:1024180055EC09F0261F271F281F291F26510B17C7
:1024280027510C1728510D1729510E1716D0FFFFE9
:102438004850010FE96EEA6AEF5055EC09F0265151
:102448000B1327510C1328510D1329510E13485003
:10245800040A02E1828001D08282FFFF800E946E1E
:102468000B511009926E0CC293FF0DC295FF0E51CD
:10247800070B0409966EC6EC0CF05F50D8A4828C4A
:102488001200FFFFFFFF1851800A1F6F3350175DBE
:102498003450800A1F5901E384D01A51800A1F6FF3
:1024A8002D50195D2E50800A1F597BE217C21FF26A
:1024B80018C220F21B511F271C512023FF0E1F2575
:1024C800216FFF0E2021226F2251800A236F335083
:1024D800215D3450800A235906E31751335C1B6F82
:1024E800185134581C6F19C21FF21AC220F21D511C
:1024F8001F271E512023FF0E1F25216FFF0E2021AD
:10250800226F2251800A236F2D50215D2E50800AA0
:10251800235906E319512D5C1D6F1A512E581E6F51
:1025280019C21FF21AC220F21D511F271E51202363
:10253800FF0E1F253C6FFF0E20213D6F17C221F2B1
:1025480018C222F21B5121271C512223FF0E2125DC
:102558003A6FFF0E22213B6F19C238F21AC239F2C4
:1025680017C236F218C237F251EC0EF01D07D8A088
:102578001E0702011EBF15D0176B186BFFFF1851FD
:10258800800A1F6F1B51175D1C51800A1F59EEE20C
:1025980051C03EF252C03FF2F0EC07F0174B182B37
:1025A800EDD7FFFF1200FFFFFFFFE8CF0BF2E00EB1
:1025B8005B6E5C68516AF80E526E1C0E1D6F1E6BC6
:1025C800440E1B6F1C6B320E196F1A6B3A0E176F85
:1025D800000E186B46EC12F0890E0201146F156B91
:1025E800340E87EC0DF00E6F0F6B0B5168EC0AF090
:1025F800106F10C223F20F0E246F7F0E2365246B19
:10260800400E216F226BF00E0E251F6FFF0E0F215B
:10261800206F87EC0CF05B6AF80E5C6ED96AFFFFDE
:102628004450D95C52E2D95055EC09F04050261577
:10263800106F41502715116F42502815126F4350E3
:102648002915136F13511011111112113CE0010ECD
:102658000E6F0F6BD8904430D95C1BE3210E0E2708
:10266800000E0F23F60E346FFF0E3569D9CF32F204
:10267800336BCDEC08F044500A0D3251F324106F3F
:102688003351F420116FFA0E10250C6FFF0E112133
:1026980007D0D9500A0D040EF3240C6F000EF42055
:1026A800FFFF0D6F090E1D6F1E6B150E1B6F000EC1
:1026B8001C6B0CC219F20DC21AF20EC217F20FC22D
:1026C80018F232EC0FF0D92AAAD71200FFFFFFFF49
:1026D800E8CF0CF2E16A0E6B0F6BFFFF3E500E5D08
:1026E8003F500F592DE2E1CF12F20CC213F2122B18
:1026F80003D0FFFFD8901333FFFF122FFAD71351DF
:10270800010B0D6FE128070BE16E106B116BFFFFDA
:102718003E50105D3F50115910E20DC21EF20EC21C
:102728001CF20FC21DF210C21AF211C21BF20DECFC
:102738000EF00201104B112BEAD70E4B0F2BCDD701
:10274800E16A0E6B0F6BFFFF3E500E5D3F500F5955
:1027580063E2E1CF12F20CC213F2122B03D0FFFF97
:10276800D8901333FFFF122FFAD71351010B0D6FB7
:10277800E128070BE16E106B116BFFFF3E50105DF7
:102788003F50115946E20EC21CF20FC21DF210C290
:102798001AF211C21BF29CEC0BF002010D1936E083
:1027A80061C012F210C213F211C214F2122B04D03B
:1027B800FFFF143514331333FFFF122FF9D761C00D
:1027C80015F20EC216F20FC217F2152B04D0FFFF36
:1027D800173517331633FFFF152FF9D7163B173B5D
:1027E800F00E171716510F0B1713F00E1617000ED1
:1027F80002011625186F010E1721196F135118259C
:10280800E96E14511921EA6E010EEF6E104B112B6F
:10281800B4D70E4B0F2B97D71200FFFFFFFFE8CF5F
:10282800D9FF010E0F6F106B116B126B5B6A5C6A3C
:102838005168070E526ED9500DE0800E1D6F1E6B49
:10284800370E1B6F000E1C6B196B1A6B176B186B0E
:1028580046EC12F082AC19D0E00E5B6E5C68516AEF
:10286800F80E526EFD0E236F7F0E246F040E216F3B
:10287800226B160E1F6F000E206B87EC0CF05B6A44
:102888005C6A5168070E526E10D0FFFF0C0E1D6F68
:102898001E6B080E1B6F1C6B040E196F1A6B160E3D
:1028A800176F000E186B46EC12F0FFFF010E0D6F4C
:1028B8000E6BFFFF44C013F2146B1451800A156F9E
:1028C8000D51135D0E51800A155944E31F0E0B6F0D
:1028D8000C6B0F513814136F10513914146F1151B8
:1028E8003A14156F12513B14166F16511311141127
:1028F80015110CE00F514D14136F10514E14146F35
:1029080011514F14156F125150140BD00F512F1431
:10291800136F10513014146F11513114156F125177
:102928003214FFFF166F165113111411151103E01D
:102938000B6BF80E0C6F0BC217F20CC218F20D518C
:10294800C4EC14F0D8900F371037113712370D4BED
:102958000E2BAFD7D89044300A0D030EF3241D6F09
:10296800000EF4201E6F240E1B6F1C6B020E196FD5
:102978001A6B0A0E176F000E186B32EF0FF0FFFF7D
:10298800FFFFE8CFD9FFD950050DF3CF22F2FB0E98
:102998002227180E22251C6F1D6B530E1D23030EB4
:1029A8001A6F0D0E1B6FD90455EC09F03850261517
:1029B800226F39502715236F3A502815246F3B5042
:1029C8002915256F255122112311241102E0010E2A
:1029D80001D0000EFFFF196FD95044C022F2D890E1
:1029E8002233225D1DE2010E191B2B0E1A27170E2A
:1029F8001B27F60E346FFF0E3569D9CF32F2336BD1
:102A0800CDEC08F044500A0D3251F324226F3351B3
:102A1800F420236F050E22251E6F000E232107D0F8
:102A2800D9500A0DFB0EF3241E6FFF0EF420FFFF92
:102A38001F6F5AC022F2236B222B000E2323D9507A
:102A48002219231107E1090E206F780E216F176BE9
:102A5800186B1ED048C022F2236B222B000E2323B2
:102A6800D9502219231109E1170E206F780E216F12
:102A78001F0E176FF80E186F0BD0195104E0100EC7
:102A8800206F780E03D01E0E206F780EFFFF216F87
:102A9800FFFF17C22EF218C22FF2070E2D6F080E75
:102AA8002C6F20C22AF221C22BF21EC228F21FC2AA
:102AB80029F21AC226F2276B80EC0FF02E6B2F6BCF
:102AC800050E2D6F080E2C6F1CC22AF21DC22BF2A8
:102AD8001E29286F000E1F21296F1BC226F2276BA3
:102AE80080EF0FF0FFFFFFFF009204EC08F005C233
:102AF80036F006C237F036C0F6FF37C0F7FF0800D9
:102B0800FFFFF550800B5F6E36C0F6FF37C0F7FF4A
:102B18000800FFFFF5CF07F207BD008236C0F6FFB9
:102B280037C0F7FF0800FFFFF5501F0BE96E364A64
:102B3800372A54D0080E446E030E2CD00E0E446E65
:102B4800060EFFFF5A6E0D0EFFFF486E66D00E0E82
:102B5800446E050EF6D70E0E446E090E14D00E0EF6
:102B6800446E0A0E5A6E030EEFD7100E446E070E0F
:102B780003D0100E446E060EFFFF5A6E0F0EE4D7F8
:102B8800100E446E0B0EFFFF5A6E040EDDD7100EAA
:102B9800446E0F0EFFFF5A6E070ED6D7120E446E04
:102BA800110E5A6E080ED0D7140E446E090E03D0BB
:102BB800140E446E070EFFFF5A6E130EC5D7140E7F
:102BC800446E130E5A6E090EBFD7180E446E0B0EC4
:102BD8005A6E170EB9D7FFFF000E4DD0FFFFE95010
:102BE800010AA8E0030AAAE0010AB1E0070AB3E073
:102BF800010AB5E0030AB9E0010ABBE00F0AC0E028
:102C0800010AC5E0030ACAE0010ACEE0070AD0E0DB
:102C1800010AD5E0030AD9E0DED7FFFFD96A4404E8
:102C2800E16E170EF36EFFFFD8904430D95C20E2B6
:102C38008D0ED924F66EF76A740EF722D950010F5B
:102C4800E96EEA6A0800FFFFF5CFEFFF8D0EF32467
:102C5800F66EF76A740EF722E150010FE96EEA6A20
:102C68000800FFFFF5CFEFFFD92AE106F306DBD70F
:102C7800D8EC0FF0010EFFFF1200FFFFFFFF086BFB
:102C8800010E12EC14F05B6A5C6A5168070E526E12
:102C980005C21FF206C220F2B4EC09F0203520313B
:102CA8000A6F1F31096F0951D96E5F5002E0080E93
:102CB800D92605C223F206C224F2020E216F226B26
:102CC800D9505C081F6F000ED8A0E82A0008206FB2
:102CD80087EC0CF0D96E5F5010E05B6AF80E5C6E02
:102CE8009D0E236F7F0E246F020E216F000E226B44
:102CF800D9CF1FF2206B87EC0CF01F0E5B6E5C6A5D
:102D08007C0E236F7A0E246F3A0E216F226B440ECD
:102D18001F6F000E206B87EC0CF0FFFF36C0F6FF2C
:102D280037C0F7FF0800FFFFF5501D0A7BE036C0EB
:102D3800F6FF37C0F7FF0800FFFFF5CF07F2010ED7
:102D4800E16E2AD08AEC08F047D051EC08F044D064
:102D5800FFEC08F041D043EC08F03ED099EC0EF0BF
:102D68000ED00EEC0BF00BD0D2EC07F008D005EC2F
:102D78000DF032D029EC08F02FD0CCEC07F0FFFF93
:102D8800E16E2AD036EC08F027D0828C25D0829CC0
:102D980023D0E0EC07F020D0FFFF10EC08F00F0A7A
:102DA800D1E01F0AD2E0010AD3E0030AD4E0010A05
:102DB800D5E0070AD6E0010AD7E0030ADBE0010AFA
:102DC800D6E00F0ADAE0010ADDE0030AE2E0010AD0
:102DD800DCE0070ADCE023D0FFFF082B07511A0AC2
:102DE80002E1010E01D0000EFFFF12EC14F000A06A
:102DF8000ED0E16603D00851D8EC12F0FFFF74EC56
:102E080009F000090CE1010E12EC14F086D7FFFF5F
:102E1800E16683D70851D8EC12F074EC09F0FFFF93
:102E2800000E01D0010EFFFF1200FFFFFFFF4AEC6A
:102E38000CF03EC00CF23FC00DF2E6EC08F0616EFB
:102E48005B6A5C6A05C21FF206C220F2B4EC09F0A4
:102E580020352031096F1F31086F0851D96E05C21E
:102E680023F206C224F2010E216F226BD9504008CA
:102E78001F6F000ED8A0E82A0008206F87EC0CF01E
:102E8800970E236F7A0E246F680E216F000E226B47
:102E98001F6B206B87EC0CF03EC008F23FC009F2B4
:102EA800040E0A6FFFFFD890093308330A2FFAD7A8
:102EB800085168EC0AF00B6F0BC223F20F0E246F57
:102EC8007F0E2365246B680E216F226B280E1F6FFF
:102ED800000E206B87EC0CF0076FC00E236F7A0E84
:102EE800246F680E216F226B040E07251F6F206B5D
:102EF800000E202387EC0CF0D40E236F7A0E246F7B
:102F0800740E216F000E226B1F6B206B87EC0CF088
:102F18005B6A5C6A516AF80E526ECF0E236F7A0EA6
:102F2800246F740E216F226B280E1F6F000E206B0A
:102F380087EC0CF0E00E516E070E526E9D0E236F5B
:102F48007A0E246F740E216F226B500E1F6F000EC5
:102F5800206B87EC0CF05B6A5C6A516A526A510E0E
:102F68001D6F1E6B1B6F1C6B0C0E196F1A6B010EFD
:102F7800176F000E186B46EC12F0080E1D6F1E6BD3
:102F88007C0E1B6F1C6B5E0E196F1A6B020E176F8F
:102F9800000E186B32EC0FF0000E1BEC09F0000E5F
:102FA80042EC0AF0000E6BEC13F0150E42EC0AF03E
:102FB800FF0E6BEC13F02A0E42EC0AF0550E6BEC88
:102FC80013F03F0E42EC0AF0AA0E6BEC13F0540E0D
:102FD80042EC0AF0F00E6BEC13F0690E42EC0AF0CA
:102FE8000F0E6BEC13F07A0E42EC0AF0000CFFFFA8
:102FF800FFFF020E0D25156F000E0E21166F15C26C
:10300800F6FF16C2F7FF0800FFFFF5CF17F217A16A
:1030180028D045C034F2356B030E0D25156F000E10
:103028000E21166F15C2F6FF16C2F7FF0800FFFF44
:10303800F550326F336B32BF3307CDEC08F03251A5
:103048002D5C176F33512E58186F183518311A6FB9
:103058001731196F46501925136F47501A21146FED
:1030680005D0FFFF46C013F247C014F2FFFF0F510F
:103078004502F3501327F4501423105106E0E00ED4
:103088005B6E5C68516AF80E05D05B685C681F0E61
:10309800516E000EFFFF526E0F51020D0DC2F6FF6A
:1030A8000EC2F7FF0900FFFFF5CF15F20900FFFF79
:1030B800F5CF16F2F3501527000E162315C2F6FFAA
:1030C80016C2F7FFF86A050EF76409D00900FFFF7A
:1030D800F5CF1FF20900FFFFF5CF20F208D0F6CF99
:1030E800E9FFF7CFEAFFEECF1FF2EECF20F2B4EC04
:1030F80009F01F51535C176F20515458186F183539
:103108001831126F1731116F020E0D25156F000E51
:103118000E21166F15C2F6FF16C2F7FF0800FFFF53
:10312800F5CF17F217B118D03CC01DF23DC01EF202
:1031380013C21BF214C21CF2CAEC0DF01BC232F20D
:103148001CC233F253C034F254C035F2CDEC08F04F
:103158003251112733511223FFFF3CC01DF23DC0ED
:103168001EF213C21BF214C21CF266EC0BF01BC257
:1031780021F21CC222F20F51020D0DC2F6FF0EC23F
:10318800F7FF0900FFFFF5CF15F20900FFFFF5CFA4
:1031980016F2F3501527000E162315C2F6FF16C2B5
:1031A800F7FFF86A050EF76409D00900FFFFF5CFAD
:1031B80023F20900FFFFF5CF24F208D0F6CFE9FF8C
:1031C800F7CFEAFFEECF23F2EECF24F211C21FF2BF
:1031D80012C220F287EF0CF0FFFFFFFF020E0D2551
:1031E800196F000E0E211A6F19C2F6FF1AC2F7FFE7
:1031F8000800FFFFF5CF1BF21BA128D045C034F211
:10320800356B030E0D25196F000E0E211A6F19C2AA
:10321800F6FF1AC2F7FF0800FFFFF550326F336B55
:1032280032BF3307CDEC08F032512D5C1B6F3351A0
:103238002E581C6F1C351C311E6F1B311D6F4650DC
:103248001D25116F47501E21126F05D0FFFF46C084
:1032580011F247C012F2FFFF136B146B11C217F281
:1032680012C218F25B685C681F0E516E000E526A3B
:10327800FAEC09F0156B166BFFFF030E0D25196F9D
:10328800000E0E211A6F19C2F6FF1AC2F7FF0800C6
:10329800FFFFF5501B6F1C6B1BBF1C071651800AE4
:1032A8001D6F1B51155D1C51800A1D5901E395D0F6
:1032B8001551020D0DC2F6FF0EC2F7FF0900FFFF00
:1032C800F5CF19F20900FFFFF5CF1AF2F3501927CD
:1032D800E86AF3BEE8681A2319C2F6FF1AC2F7FFB4
:1032E800F86A050EF76409D00900FFFFF5CF1FF251
:1032F8000900FFFFF5CF20F208D0F6CFE9FFF7CF9E
:10330800EAFFEECF1FF2EECF20F2B4EC09F01F5126
:10331800535C1B6F205154581C6F1C351C31106FA7
:103328001B310F6F1551020D0DC2F6FF0EC2F7FFCC
:103338000900FFFFF5CF19F20900FFFFF5CF1AF2D8
:10334800F3501927E86AF3BEE8681A2319C2F6FF92
:103358001AC2F7FFF86A050EF76409D00900FFFFE3
:10336800F5CF23F20900FFFFF5CF24F208D0F6CFFE
:10337800E9FFF7CFEAFFEECF23F2EECF24F217C230
:1033880021F218C222F2020113510F251F6F1451A6
:103398001021206F87EC0CF045501727000E1823DA
:1033A8001851800A196F3C50175D3D50800A195911
:1033B80011E311C217F212C218F2535013275450D6
:1033C80014231451800A196F3350135D3450800A46
:1033D800195903E2154B162B4FD71200FFFFFFFFB9
:1033E8009494190E0F6F000E106BA0EC08F0190ED4
:1033F8000F6F000E106BA0EC08F0190E0F6F000E87
:10340800106BA0EC08F0010E6C6EE8EC07F0320EC1
:103418000F6F000E106BA0EC08F0110EE8EC07F02F
:10342800190E006F5C0EFFFFE82EFDD7002FFBD7AB
:1034380000D004003A0EE8EC07F0050ED8EC07F0CF
:10344800190E0201006F5C0EFFFFE82EFDD7002F5A
:10345800FBD700D00400260EE8EC07F0040ED8ECE9
:1034680007F0050E0201006FDE0EFFFFE82EFDD704
:10347800002FFBD700D00400F20EE8EC07F0010E95
:10348800D8EC07F0050E0201006FDE0EFFFFE82EF4
:10349800FDD7002FFBD700D00400130EE8EC07F08F
:1034A800B60EE8EC07F0FF0ED8EC07F0060ED8ECE5
:1034B80007F0E00EE8EC07F0E16AFFFFC70EE12431
:1034C800F66EF76A760EF7220800FFFFF550D8EC83
:1034D80007F0E12A0E0EE164F0D7E10EE8EC07F000
:1034E800F36AFFFFB80EF324F66EF76A760EF7223A
:1034F8000800FFFFF550D8EC07F0F32A0E0EF3642E
:10350800F0D7B10EE8EC07F0080ED8EC07F0020E81
:10351800D8EC07F0050E0201006FDE0EFFFFE82E63
:10352800FDD7002FFBD700D00400B40EE8EC07F05D
:10353800070ED8EC07F0050E0201006FDE0EFFFF44
:10354800E82EFDD7002FFBD700D00400C00EE8EC12
:1035580007F00A0ED8EC07F0020ED8EC07F0050EBB
:103568000201006FDE0EFFFFE82EFDD7002FFBD70C
:1035780000D00400C10EE8EC07F0020ED8EC07F00A
:10358800050E0201006FDE0EFFFFE82EFDD7002FAB
:10359800FBD700D00400C50EE8EC07F0500ED8ECBD
:1035A80007F0630ED8EC07F0050E0201006FDE0E7F
:1035B800FFFFE82EFDD7002FFBD700D00400C70E71
:1035C800E8EC07F0000ED8EC07F0050E0201006FDA
:1035D800DE0EFFFFE82EFDD7002FFBD700D004003A
:1035E8002A0EE8EC07F0000E02013E6B3F6BF0EC90
:1035F80007F07F0E3E6F000E3F6BF0EC07F02B0ECE
:10360800E8EC07F0000E3E6B3F6BF0EC07F07F0E26
:103618003E6F000E3F6BF0EC07F0000E036B046B7F
:10362800016B026B39EC0BF0000EB9EC0AF0290EB5
:10363800E8EC07F0050E006FDE0EFFFFE82EFDD761
:10364800002FFBD700D004002C0EE8EC07F0050E85
:103658000201006FDE0EFFFFE82EFDD7002FFBD71B
:1036680000D004005B685C68516A526AFAEF09F09E
:10367800FFFFFFFF015100110AE0356A00C21FF089
:1036880001C220F0196A00C22BF001C22CF0FFFF22
:10369800020145C01DF21E6B2DC01BF22EC01CF28C
:1036A80066EC0BF01B512D5C3C6E1C512E583D6E88
:1036B8002DC004F22EC005F23C50045F3D50055B5E
:1036C80005350531476E0431466E020E2B24046F12
:1036D800000E2C20056F04C2F6FF05C2F7FF080094
:1036E800FFFFF5CF06F206A105D033C053F034C072
:1036F80054F03CD0FFFF45C034F2356B04690569CE
:10370800030E2B24066F000E2C20076F06C2F6FF4F
:1037180007C2F7FF0800FFFFF5CF08F2045108259C
:10372800326F000E08BFFF0E0521336FCDEC08F095
:1037380032C21BF233C21CF23CC01DF23DC01EF265
:10374800CAEC0DF01B29E16E020EE16001D0E12AFE
:10375800FFFFE1CF1DF21E6B33C01BF234C01CF219
:10376800CAEC0DF01BC253F01CC254F0FFFF2BC073
:103778000DF22CC00EF2F1EC18F0010E106F35505E
:10378800190FE96EEA6AEF500F6F2BC00DF22CC0CB
:103798000EF2FCEC17F0FFFFE4EC0EF0036F0351A0
:1037A800100A01E00BD13550190FE96EEA6AEF50A3
:1037B800020D040E2B24046F000E2C20056F04C28A
:1037C800F6FF05C2F7FF0900FFFFF5CF06F2090073
:1037D800FFFFF5CF07F2F3500627E86AF3BEE86863
:1037E800072306C2F6FF07C2F7FFF86A050EF7645B
:1037F80009D00900FFFFF5CF08F20900FFFFF5CF58
:1038080009F208D0F6CFE9FFF7CFEAFFEECF08F2CA
:10381800EECF09F20201095108110FE1355001E11B
:1038280036D735063550020DF3501F0FE96EEA6A98
:10383800EECF2BF0EDCF2CF02AD7020E2B24046FFD
:10384800000E2C20056F04C2F6FF05C2F7FF080022
:10385800FFFFF5CF06F23550190FE96E06AF67D0B6
:10386800EA6AEF50020D040E2B24046F000E2C2080
:10387800056F04C2F6FF05C2F7FF0900FFFFF5CF89
:1038880006F20900FFFFF5CF07F2F3500627E86AB2
:10389800F3BEE868072306C2F6FF07C2F7FFF86A17
:1038A800050EF76409D00900FFFFF5CF65F00900A0
:1038B800FFFFF5CF66F008D0F6CFE9FFF7CFEAFFB4
:1038C800EECF65F0EECF66F03550190FE96EEA6A73
:1038D800EF50020D2BC0F6FF2CC0F7FF0900FFFFC9
:1038E800F5CF04F20900FFFFF5CF05F2F35002010E
:1038F8000427E86AF3BEE868052304C2F6FF05C298
:10390800F7FFF86A050EF76409D00900FFFFF5CF45
:1039180067F00900FFFFF5CF68F008D0F6CFE9FFA0
:10392800F7CFEAFFEECF67F0EECF68F0DAD0FFFF0F
:10393800EA6AEF50020D040E2B24046F000E2C20AF
:10394800056F04C2F6FF05C2F7FF0900FFFFF5CFB8
:1039580006F20900FFFFF5CF07F2F3500627E86AE1
:10396800F3BEE868072306C2F6FF07C2F7FFF86A46
:10397800050EF76409D00900FFFFF5CF2BF0090009
:10398800FFFFF5CF2CF008D0F6CFE9FFF7CFEAFF1D
:10399800EECF2BF0EECF2CF0352A3550020DF35038
:1039A8001F0FE96EEA6A2BC0EEFF2CC0EDFF355001
:1039B800190FE96EEA6A000EEF6A69D6106B355086
:1039C800190FE96EEA6AEF500F6F2BC00DF22CC089
:1039D8000EF2FCEC17F01DD045C01DF21E6B3CC06A
:1039E8001BF23DC01CF2CAEC0DF01B5100080ED0B2
:1039F80045C01DF21E6B3CC01BF23DC01CF2CAEC58
:103A08000DF01B5103D002690ED0010EFFFF026FAB
:103A18000AD0FFFF0351010AF6E0030AF6E0060A9E
:103A2800DBE00C0AE5E0FFFF3550190FE96EEA6AA2
:103A38000251EF263550190FE96EEA6AEF50046F0C
:103A48003550190FE96EEA6A04AF02D0000E38D07B
:103A5800FFFFEF50046F05690669030E2B24076FFB
:103A6800000E2C20086F07C2F6FF08C2F7FF0800F7
:103A7800FFFFF5CF09F2055109250A6F000E09BFAE
:103A8800FF0E06210B6F0B51800A0C6F04510A5D63
:103A9800800E04BF7F0E0C5915E23550190FE96EE0
:103AA800EA6A030E2B24046F000E2C20056F04C253
:103AB800F6FF05C2F7FF0800FFFFF5CF06F206057F
:103AC800FFFFEF6E010E106F3550190FE96EEA6AAD
:103AD800EF500F6F2BC00DF22CC00EF2FCEC17F05C
:103AE8005AD6FFFF1200FFFF517EA77A197D817E0B
:103AF800D97ADE7AA27AFD78EB78D978DF78E5781A
:103B0800D378F178847A747A8A7A977B6B7A8A7A0E
:103B18000000000000000000000000003078787805
:103B2800303030003030000066662222000000008D
:103B3800000000000708FF80889F8880FF3F000082
:103B4800F008FC0426E60606FEFE0000003E4040A3
:103B58003E007E12120C0000386C6C383076DCCCDB
:103B6800CC7600003030306000000000000000001B
:103B78000C18303030303030180C000030180C0C75
:103B88000C0C0C0C18300000000000663CFF3C6672
:103B98000000000000000018187E1818000000003F
:103BA8000000000000000000181818300000000095
:103BB80000FE0000000000000000000000000000FF
:103BC80018180000EEA8A8A8EE00FE0000000000EB
:103BD8007CC6C6CED6E6C6C6C67C0000183878189D
:103BE80018181818187E00007CC6060C183060C01B
:103BF800C6FE00007CC606063C060606C67C00001B
:103C08000C1C3C6CCCFE0C0C0C1E0000FEC0C0C092
:103C1800FC060606C67C00003860C0C0FCC6C6C6E6
:103C2800C67C0000FEC606060C1830303030000096
:103C38007CC6C6C67CC6C6C6C67C00007CC6C6C6D0
:103C48007E0606060C780000000018180000001810
:103C580018000000000018180000001818300000B4
:103C680000060C18306030180C0600000000007EBA
:103C780000007E0000000000006030180C060C18E0
:103C8800306000007CC6C60C181818001818000010
:103C98000038449AAAAAAA9C403C000010386CC676
:103CA800C6FEC6C6C6C60000FC6666667C66666654
:103CB80066FC00003C66C2C0C0C0C0C2663C0000D2
:103CC800F86C6666666666666CF80000FE66626892
:103CD8007868606266FE0000FE6662687868606008
:103CE80060F000003C66C2C0C0DEC6C6663A00008E
:103CF800C6C6C6C6FEC6C6C6C6C600003C18181844
:103D080018181818183C00001E0C0C0C0C0CCCCC05
:103D1800CC780000E666666C78786C6666E600002B
:103D2800F06060606060606266FE0000C6EEFEFEE5
:103D3800D6C6C6C6C6C60000C6E6F6FEDECEC6C6EF
:103D4800C6C600007CC6C6C6C6C6C6C6C67C0000B7
:103D5800FC6666667C60606060F000007CC6C6C673
:103D6800C6C6C6D6DE7C0C0EFC6666667C6C6666CD
:103D780066E600007CC6C660380C06C6C67C000035
:103D88007E7E5A1818181818183C0000C6C6C6C6F1
:103D9800C6C6C6C6C67C0000C6C6C6C6C6C6C66CEB
:103DA80038100000C6C6C6C6D6D6D6FEEE6C0000D1
:103DB800C6C66C7C38387C6CC6C60000666666660B
:103DC8003C181818183C0000FEC6860C183060C253
:103DD800C6FE00003C30303030303030303C00001F
:103DE8000080C0E070381C0E060200007818181811
:103DF800181818181878000010386CC60000000051
:103E0800000000000000000000000000000000FFAB
:103E18001E3666C6C6FEC6C6C6C60000FE6260601E
:103E28007C66666666FC0000FC6666667C6666669E
:103E380066FC0000FE6662606060606060F0000022
:103E48001E3666666666666666FFC342FE6662681A
:103E58007868606266FE0000D6D654547C7C54D6DE
:103E6800D6D600007CC606063C060606C67C0000C0
:103E7800C6C6C6CEDEF6E6C6C6C600003800C6C64A
:103E8800CEDEF6E6C6C60000E6666C6C78786C6C2A
:103E980066E600001E3666666666666666C60000EA
:103EA800C6EEFEFED6C6C6C6C6C60000C6C6C6C68E
:103EB800FEC6C6C6C6C600007CC6C6C6C6C6C6C638
:103EC800C67C0000FEC6C6C6C6C6C6C6C6C60000B4
:103ED800FC666666667C606060F000007CC6C6C0F2
:103EE800C0C0C0C6C67C00007E7E5A1818181818B4
:103EF800183C0000C6C6C6C6C6C67E06C67C0000FC
:103F08007CD6D6D6D6D6D67C10380000C6C66C7CF1
:103F180038387C6CC6C60000CCCCCCCCCCCCCCCC55
:103F2800CCFE060CC6C6C6C6C67E06060606000039
:103F3800D6D6D6D6D6D6D6D6D6FE0000D6D6D6D69D
:103F4800D6D6D6D6D6FF0306F8F0B0303C3636368D
:103F5800367C0000C6C6C6C6F6DEDEDEDEF600002B
:103F6800F06060607C66666666FC00007CC60626BB
:103F78003E260606C67C0000CCD6D6D6F6D6D6D6C1
:103F8800D6CC00003E6666663E3E666666C60000A3
:103F980086AFFA15060050050F0216FD14500512DB
:103FA8000C001840051224001810051204021850BD
:103FB80004120408185001120500185005120D00CB
:103FC8001840051225001810051205021850041291
:103FD8000508185001120440185005120C401840EA
:103FE80005122440181005120442185004120448FF
:103FF800185001120540185005120D4018400512BE
:10400800254018100512054218500412054818508A
:1040180001120420185005120C2018400512242003
:1040280018100512042218500412042818500112FE
:104038000520185005120D201840051225201810CB
:1040480005120522185004120528185001120460A0
:10405800185005120C60184005122460181005123B
:1040680004621850041204681850011205601850B0
:1040780005120D601840051225601810051205621A
:10408800185004120568185001120410185005122F
:104098000C1018400512241018100512041218509C
:1040A80004120418185001120510185005120D10AA
:1040B8001840051225101810051205121850041280
:1040C8000518185001120450185005120C501840C9
:1040D80005122450181005120452185004120458DE
:1040E800185001120550185005120D5018400512AD
:1040F800255018100512055218500412055818506A
:1041080001120430185005120C30184005122430E2
:1041180018100512043218500412043818500112ED
:104128000530185005120D301840051225301810AA
:10413800051205321850041205381850011204707F
:10414800185005120C70184005122470181005122A
:10415800047218500412047818500112057018508F
:1041680005120D70184005122570181005120572F9
:104178001850041205781850011D0BFF070811008C
:1041880000000005001B1400F80715AA050000F838
:10419800071555050000F8071C150004000000006D
:1041A80015010400000004150204000000021504B3
:1041B8000400000001150804000080001510040028
:1041C80000400015200400002000154004000010E5
:1041D800001580040000080015FF040000F807150A
:1041E800FE040000F80315FD040000F80515FB04A3
:1041F8000000F80615F7040000780715EF04000022
:10420800B80715DF040000D80715BF040000E80749
:10421800157F040000F0071555040000500515AA85
:10422800040000A802150F040000800715F0040020
:104238000078001533040000600615CC04000098CF
:1042480001100911FF00000000001A00FF0F110003
:1042580000000005001B14FF00001500A902FF0064
:104268000015005105FF00001C15000000000000AB
:1042780015000004010000150000020200001500EE
:10428800000104000015008000080000150040002F
:10429800100000150020002000001500100040004C
:1042A80000150008008000001500F807FF00001541
:1042B80000F803FE00001500F805FD00001500F8E1
:1042C80006FB000015007807F700001500B807EF97
:1042D80000001500D807DF00001500E807BF000040
:1042E8001500F0077F000015005005550000150067
:1042F800A802AA0000150080070F0000150078002A
:10430800F000001500600633000015009801CC008D
:10431800001D0BFF070812AA05001B1400F807155B
:10432800AA050000F8071555050000F8071C150038
:10433800040000F8071501040000F8031502040042
:1043480000F8051504040000F806150804000078B4
:10435800071510040000B8071520040000D8071539
:1043680040040000E8071580040000F00715FF046A
:104378000000000015FE040000000415FD04000004
:10438800000215FB040000000115F704000080007E
:1043980015EF040000400015DF040000200015BFE1
:1043A8000400001000157F040000080015550400E3
:1043B80000A80215AA0400005005150F0400007893
:1043C8000015F0040000800715330400009801155B
:1043D800CC0400006006100911FF00000000001A5C
:1043E80000FF0F1200A9021B14FF00001500A9020C
:1043F800FF000015005105FF00001C15000000FF1C
:10440800000015000004FE000015000002FD000079
:1044180015000001FB000015008000F700001500E2
:104428004000EF000015002000DF0000150010001C
:10443800BF0000150008007F00001500F807000005
:10444800001500F8030100001500F805020000152A
:1044580000F806040000150078070800001500B8E9
:10446800071000001500D8072000001500E80740D5
:1044780000001500F00780000015005005AA000094
:104488001500A80255000015008007F0000015006F
:1044980078000F000015006006CC00001500980198
:1044A8003300001D0BFF030C15FF01000000001571
:1044B80001000000FC031555010000A80215AB001F
:1044C800000054011501010000F8031581000000E7
:1044D800F4031541000000EC031521000000DC0383
:1044E8001511000000BC0315090000007C03150528
:1044F800000000FC021503000000FC0115FF00008D
:10450800000400157F010000080015BF010000101D
:104518000015DF010000200015EF01000040001524
:10452800F7010000800015FB010000000115FD01E6
:10453800000000021B15FF010400FC031501000424
:1045480000FC031555010400FC0315AB000400FC36
:10455800031C1A01FE0F1500FC03FE0100150000E4
:1045680000000000150054015401001500A802AA1B
:10457800000015000400000100150008008000007C
:104588001500100040000015002000200000150054
:104598004000100000150080000800001500000110
:1045A800040000150000020200001500F803FE00D8
:1045B800001500F4037E01001500EC03BE01001590
:1045C80000DC03DE01001500BC03EE010015007CD1
:1045D80003F601001500FC02FA01001500FC01FCBD
:1045E80001001B1500FC07FE010015000004FE0178
:1045F8000015005405FE01001500A806FE01001D67
:104608000BFF030C15FF010000FC0315010000005F
:1046180000001555010000540115AB000000A80268
:104628001501010000040015810000000800154173
:1046380000000010001521000000200015110000E6
:10464800004000150900000080001505000000006A
:10465800011503000000000215FF000000F8031513
:104668007F010000F40315BF010000EC0315DF0112
:104678000000DC0315EF010000BC0315F701000082
:104688007C0315FB010000FC0215FD010000FC0184
:104698001B15FF010400FC031501000400FC0315B1
:1046A80055010400FC0315AB000400FC031C1A01AF
:1046B800FE0F1500FC03FE010015000000000000BD
:1046C800150054015401001500A802AA00001500A5
:1046D800040000010015000800800000150010000B
:1046E80040000015002000200000150040001000C8
:1046F80000150080000800001500000104000015E6
:104708000000020200001500F803FE00001500F486
:10471800037E01001500EC03BE01001500DC03DE7A
:1047280001001500BC03EE010015007C03F6010032
:104738001500FC02FA01001500FC01FC01001B1524
:1047480000FC07FE010015000004FE0100150054DE
:1047580005FE01001500A806FE01001D06C3C315CD
:1047680042420000114040000016011609140404DA
:104778001601160914080816011609140C0C16015E
:104788001609141010160116091414141601160926
:1047980014181816011609141C1C160116091420E1
:1047A800201601160914242416011609142828169F
:1047B800011609142C2C160116091430301601168E
:1047C8000914343416011609143838160116091458
:1047D8003C3C16011609140000110101000016FEE8
:1047E80016F614040416FE16F614080816FE16F635
:1047F800140C0C16FE16F614101016FE16F61414E9
:104808001416FE16F614181816FE16F6141C1C16A6
:10481800FE16F614202016FE16F614242416FE168C
:10482800F614282816FE16F6142C2C16FE16F61466
:10483800303016FE16F614343416FE16F6143838D0
:1048480016FE16F6143C3C16FE16F61400001D065D
:10485800C3C31542420000114040000016010F0179
:1048680016F6100A14040416FE100216090F09148D
:10487800080816010F0116F6100A140C0C16FE1083
:104888000216090F0914101016010F0116F6100A66
:1048980014141416FE100216090F0914181816011C
:1048A8000F0116F6100A141C1C16FE100216090F2A
:1048B8000914202016010F0116F6100A14242416D4
:1048C800FE100216090F0914282816010F0116F602
:1048D800100A142C2C16FE100216090F0914303079
:1048E80016010F0116F6100A14343416FE100216BB
:1048F800090F0914383816010F0116F6100A143C6E
:104908003C16FE100216090F09140000124040164A
:1049180001160914000016FE16F61400001D0BFF00
:10492800070812AA05001B1400F80715AA050000BD
:10493800F8071555050000F8071C1500040000F8D5
:10494800071501040000F8031502040000F8051516
:1049580004040000F8061508040000780715100480
:104968000000B8071520040000D80715400400000F
:10497800E8071580040000F00715FF040000000098
:1049880015FE040000000415FD040000000215FBDC
:10499800040000000115F7040000800015EF040072
:1049A80000400015DF040000200015BF04000010BF
:1049B80000157F04000008001555040000A8021522
:1049C800AA0400005005150F040000780015F00433
:1049D800000080071533040000980115CC0400007E
:1049E80060060F0B153300000060061D0BFF07085B
:1049F80012AA05001B1400F80715AA050000F807FD
:104A08001555050000F8071C1500040000000015E6
:104A1800010400000004150204000000021504044B
:104A280000000001150804000080001510040000B3
:104A3800400015200400002000154004000010006C
:104A48001580040000080015FF040000F80715FE93
:104A5800040000F80315FD040000F80515FB040028
:104A680000F80615F7040000780715EF040000B8F1
:104A78000715DF040000D80715BF040000E8071574
:104A88007F040000F0071555040000500515AA041E
:104A98000000A802150F040000800715F0040000AC
:104AA80078001533040000600615CC040000980156
:104AB8000F0B153300000098011D0B070F0E150191
:104AC80004000000001009160C14C0000018C010E3
:104AD8000018E0100018E0300018F0300018F070EE
:104AE8000018F8700018F8F0011101000200040421
:104AF80018F8700018F0700018F0300018E0300056
:104B080018E0100018C0100018C0000018000000BD
:104B18001A7FFF0E1279F104171A070F0E150001FC
:104B280004F8F0011A7FFF0E12010104171A070F8B
:104B38000E150001040000001A7FFF0E127901040F
:104B4800171A070F0E15000104F800001A7FFF0E50
:104B58001201F104171A070F0E1500010400F001E5
:104B68001C10030F021B1300000078F00010021342
:104B780000000078F0000F031300000078F0001D1B
:104B88000E017EA011013400000000160D11001066
:104B98000000200013000010000000171300001888
:104BA800000000171300001C000000171300001E6F
:104BB800000000171300001F000000171300801FDB
:104BC800000000171300811F000000171380811FC9
:104BD8000000001713C0811F0000001713E0811F99
:104BE8000000001713F0811F0000001713F8811F41
:104BF80000000018000040100114000010110120EE
:104C08000000000017100E14FC814F100B18FE81D5
:104C18001718FE811B18FE811D18FE811E18FE0143
:104C28001F18FE801F187E811F18BE811F18DE8185
:104C38001F18EE811F18F6811F18FA811F1D06FF25
:104C480083123C001602130000003C1214001713D4
:104C5800001400281228001713002800141200005E
:104C68001713003C00001100000101180060180033
:104C78005018007018004818006818005818007874
:104C880018004418006418005418007418004C18D0
:104C9800006C18005C18003C1800400F0118007CDC
:104CA80018005C18006C18004C1800741800541890
:104CB8000064180044180078180058180068180094
:104CC8004818007018005018006018000018007C80
:104CD800100718007C110000400218007C1007180B
:104CE800007C1D05FE3515000000001510000100B0
:104CF8001502000100151200000815040001001536
:104D08001400000815060000081516000108150013
:104D1800200008151020010815022001081512208E
:104D280000021504200108151420000215062000B1
:104D380002151620010215001000081510100108B0
:104D480015021001081512100002150410010815AB
:104D580014100002150610000215161001021500A5
:104D68003000021510300102150230010215123010
:104D7800000A1504300102151430000A1506300027
:104D88000A151630010A1D02CF3F15040010001540
:104D98000600200015050020001504102000150449
:104DA8000820001504042000150402200015040141
:104DB80020001584002000158600100015861210AA
:104DC80000158713100015871F1000150800200014
:104DD800158A002000150901200015081220001569
:104DE800080C2000158B1F2000150A00100015095B
:104DF8000010001508101000150808100015080408
:104E0800100015080210001508011000150B1F10DE
:104E180000150C000000158F1F0000150000300061
:104E280015831F30001D069FFC12000816F414009D
:104E380000120048180002120108180001120208A6
:104E480018400012040818200012074818600312BE
:104E5800081818000012085818000212091818003B
:104E680001120A18184000120C18182000120F58C6
:104E78001860031210281800001210681800021297
:104E8800112818000112122818400012142818209E
:104E980000121768186003121878180002121938DF
:104EA800180001121A38184000121C381820001275
:104EB8001F78186003121838180000100B1B1460B4
:104EC800031D0699E7100E1366000000121943131C
:104ED800000066001218001366000000100B16058B
:104EE8001404181802181806181820181824181866
:104EF8002218182618184018184418184218184666
:104F0800181860181864181862181866180F05140D
:104F1800661010051366000000160414661818625F
:104F280018186418186018184618184218184418E1
:104F38001840181826181822181824181820181895
:104F480006181802181804181800180F0414000876
:104F5800100413000066001D869FFC12000816F45A
:104F6800140000120048180002120108180001126B
:104F78000208184000120408182000120748186098
:104F8800031208181800001208581800021209180D
:104F9800180001120A18184000120C1818200012E4
:104FA8000F58186003121028180000121068180013
:104FB8000212112818000112122818400012142891
:104FC80018200012176818600312187818000212C7
:104FD8001938180001121A38184000121C38182005
:104FE80000121838180000121F781860031D06FFF9
:104FF8008015210000200F0614005F15310000798C
:105008000F0614000615250000440F0614003B1572
:10501800350000500F0614002F15230000190F0645
:1050280014006615330000120F0614006D152700D2
:1050380000020F0614007D15370000780F061400D3
:105048000715290000000F0614007F15390000100D
:105058000F0614006F0F01111E00000014006F15D9
:105068000D000000151D000000150B000000151BA9
:10507800000000150F000000151F0000001541007A
:1050880000001D069DDB12040810010F01144204E4
:1050980012081010010F01146020120C1B13222497
:1050A80000000F09160F1460001840041860041857
:1050B8004020186020184024186024184200186204
:1050C800001842041862041842201862201842246A
:1050D8001822241840000F0A186224184224186263
:1050E800201842201862041842041862001842006E
:1050F80018602418402418602018402018600418EC
:10510800400418600018000010051840001D0E002B
:1051180008FE15000006FFF70115000004FFF7015F
:1051280015000002FFF70115000000FEF701150049
:105138000040FDF70115000020FBF7011500006095
:10514800F7F70115000010EFF70115000050DFF721
:105158000115000030BFF701150000707FF7011539
:10516800000008FFF60115000048FFF501150000D2
:1051780028FFF30115000068FFE70115000018FF7C
:10518800D70115000058FFB70115000038FF770157
:1051980015000078FFF7001D06FF83123C00160279
:1051A800130000003C1214001713001400281228E2
:1051B800001713002800141200001713003C000009
:1051C8001100000101180060180050180070180044
:1051D8004818006818005818007818004418002467
:1051E8001800400F011800641800441800781800CF
:1051F8005818006818004818007018005018006007
:10520800180000180064100718006411000040021C
:1052180018006410071800641D0B01FE0F1500FC30
:105228000300000015000000FE010015005401AA4B
:1052380000001500A8025401001B1500FC07FE0120
:105248000015000004FE010015005405FE010015BC
:1052580000A806FE01001C1AFF030C15FF01000040
:1052680000001501000000FC031555010000A8020C
:1052780015AB00000054011B15FF010400FC0315C9
:1052880001000400FC031555010400FC0315AB00E4
:105298000400FC031D0E575DF512555155160B14ED
:1052A800A8A20A120110401800000012111151188A
:1052B80020820812455044188820020F0D1400005F
:1052C8000011010000001020180000081800000A52
:1052D8001800800A1800A00A1800A20A1880A20A5A
:1052E80018A0A20A18A8A20A11020040010000187A
:1052F800A0A20A1880A20A1800A20A1800A00A1878
:1053080000800A1800000A18000008180000001D94
:1053180040C04040E0E020E080E0E020E020E0A065
:10532800A0E02020E080E020E0E080E0A0E0E020B5
:10533800404040E0A0E0A0E0E0A0E020E04ECA4A03
:105348004AEE44CC4444EE4EC24E48EE4EC24E4263
:10535800EE4ACA4E42E24EC84E42EE4EC84E4AEEA1
:105368004EC24444E44ECA4E4AEE4ECA4E42EEEE97
:105378002AEA8AEEE42CE484EEEE22EE88EEEE22AF
:10538800EE82EEEA2AEE82E286E0FF1500000000D7
:10539800150002010015000402001500060300159F
:1053A800000804001500100500150012060015007D
:1053B800140700150016080015001809001500202C
:1053C8000A001500220B001500240C001500260DFC
:1053D800001500280E001500300F001500321000CF
:1053E8001500341100150036120015003813001589
:1053F80000401F001500541F0015006A1F001D0201
:10540800CF3F150000100015090010001508011005
:1054180000150005100015001410001508151000DF
:1054280015830D1000150B1F100015010020001525
:10543800020020001508002000158000200015003B
:1054480001200015000220001500042000150008A6
:1054580020001500102000150915200015821A20BB
:1054680000158B1F2000150B002000158B01200054
:10547800158B0720001D0BABAA0E150000000000BD
:105488000015000002000001150080000040001512
:10549800002000001000150008000004001580001E
:1054A8000000010015200000400000150800001051
:1054B800000015AAA80254550115020000040000B6
:1054C8001B1500000454550115AAA80654550115CA
:1054D80001000054550115ABA802545501150100EF
:1054E8000454550115ABA8065455011D0BABAA0E63
:1054F8001500000054550115000002545500150010
:1055080080005415011500200054450115000800BD
:105518005451011580000054540115200000145501
:10552800011508000044550115AAA802000000153D
:105538000200005055011B1500000454550115AA1E
:10554800A8065455011501000054550115ABA802D1
:105558005455011501000454550115ABA8065455BE
:10556800011D024338150318000011020800001637
:10557800FF140400180800180C0018100018140074
:10558800181800181C0018200018240018280018E3
:105598002C00183000183400183800183C0016F396
:1055A800143C0416FF14000416F314000218000635
:1055B80018000118000518000318000718800018C3
:1055C8008004188002188006188001188005188049
:1055D800031880071800001D0699E7120143160EEC
:1055E800146618100B18001018041018021018066A
:1055F80010182010182410182210182610184010FF
:105608001844101842101846101860101864101822
:105618006210186618180010100518661018621025
:105628001864101860101846101842101844101802
:1056380040101826101822101824101820101806C8
:10564800101802101804101800181866101D069972
:10565800E7100E13660000001218411322004400E0
:105668001218001366000000100B16051404181811
:10567800021818061818201818241818221818269E
:10568800181840181844180F05144410100513660C
:105698000000001604144418184018182618182278
:1056A800181824181820181806181802181804189A
:1056B8001800180F04140008100413220044001DD9
:1056C80006BFFE153D1E0001153F1E0001153D3E9B
:1056D8000001153F3E0001153C1E4001153E1E40CD
:1056E80001153C3E4001153E3E40011500000000FA
:1056F800150200000015002000001502200000150A
:1057080028144000152A1440001528340001152AD1
:105718003400011B153F5E0000153C5E4000153E3D
:105728005E4000153C7E4000153E7E40001D02781C
:1057380020151800801F15380001001130000000E6
:1057480016FC14000610061481191880040F06149C
:10575800011B18010F10061480101804190F0614E5
:10576800850618870D10061406121806020F06146F
:10577800871D18060710061487181806000F061448
:10578800871F18830F10061402101801000F061443
:10579800801F1D0687F015003000000F0E1408004A
:1057A80015011010001502102000150310400015F7
:1057B8000410000115051000021506100004150755
:1057C8001000081107000000100F14080015015000
:1057D8001800150250380015035078001504507849
:1057E8000115055078031506507807150750780FEE
:1057F800100E0F0D14780F1D06FF831255021602A6
:10580800140028126902180014157C03001416FEEF
:1058180014000011400001001602140000110002DB
:105828004000180000110000400218002018001065
:105838001800301800081800281800181800381820
:10584800000418002418001418003418000C18005C
:105858002C18001C18007C1800001D02EF3F15834F
:10586800011000110300000016F8141000181000B1
:105878001810001810001810001810001810001840
:105888001000181000180000150100000015020093
:1058980000001100008301110300000016F7141026
:1058A8000018100018100018100018100018100028
:1058B8001810001810001810001800001D06ADDAA6
:1058C8001500005225150100502515040042251524
:1058D800200012251500025224150010522115002F
:1058E8004052051521101021150442420415255275
:1058F80000001B15255A0000150008000015211886
:10590800000015044A0000152D52522515080052B2
:10591800251529105225150C4252251D833F2015A7
:105928000800C01F10031400001504000008151417
:1059380000C01C15050000111515004010150600C3
:10594800C00415160040021507000002151700C014
:1059580018150C000000151C004000150D0000175C
:10596800151D004016150E00C005151E0040031534
:105978000F000007151F00C01F1D087E181508100E
:105988008124154C100145152A1080A2156E1000AF
:10599800C312081016F316FC148124120C1016F307
:1059A80016FC148144120A1016F316FC1480A41273
:1059B800281016F316FC14812212481016F316FC50
:1059C800140125126E1016F316FC1400C3124A10A7
:1059D80016F316FC1400A51D027F3F153E0C80002F
:1059E800153D0C8000153B0C800015370C80001508
:1059F8002F0C8000151F0C8000153F088000153FF4
:105A080004800015010080001502008000150400C4
:105A18008000150800800015100080001520008007
:105A280000150004800015000880001500008000A3
:105A3800153F0C00001D0699E715012142101500BD
:105A480062241015002000101110000004160E1416
:105A58000410180210180610182010182410182204
:105A6800101826101840101844181800101005189F
:105A78004410184010182610182210182410182046
:105A8800101806101802101804101800181004181E
:105A980000181D06C3FF15007C000011004000011E
:105AA800160714000011000100021800000F0A1860
:105AB8003C00120000180000120020180400120018
:105AC800101808001200081810001200041820000E
:105AD80012001418280012002818140011020001DE
:105AE800001B143C001503003C001502003C001D7F
:105AF80006FF8312550216021400281269021800C4
:105B080014157C030000114000010018000011006A
:105B18000240001800001100004002180020180080
:105B28001018003018000818002818001818003835
:105B380018000418002418001418003418000C1851
:105B4800002C18001C18007C1800001D06CFFF153B
:105B58000A501000150A542000150A521000150AA0
:105B6800562000150A511000150A552000150A5331
:105B78001000150A572000150528200015052C10BF
:105B88000015052A200015052E10001505292000EE
:105B980015052D100015052B200015052F100010D8
:105BA800071B1430001D027F3F1500008000150CF4
:105BB80005800015120A80001524118000151302B3
:105BC800800015120E8000151312800015060000C3
:105BD800001538000000150003000015011C000026
:105BE80015391C000015071C000015011F000015C1
:105BF800071F0000153E030000153F1F00001D028F
:105C08005F3F151F1F0000151B1F000015171F0001
:105C180000150F1F000015011F200015151F20007B
:105C2800150B1F2000151E1F0000151F170000155B
:105C38001F0F0000151F1E0000151F1D0000151F57
:105C48001B0000151E1E8000151F158000151F0B58
:105C58008000150000A0001D06CFFF150A50100097
:105C6800150A542000150A521000150A562000156E
:105C78000A511000150A552000150A531000150A7C
:105C8800572000150528200015052C100015052A99
:105C9800200015052E1000150529200015052D10CA
:105CA8000015052B200015052F10001007142000E3
:105CB8001D0687C0120000160319071501400000D1
:105CC80010021808001818001838001878001878FA
:105CD8002018783018783818783D0F0314783F0F5B
:105CE8000218703F18603F18403F18003F18001F07
:105CF80018000F1800071800020F031400000F0FF8
:105D08001B14783C1D06809E150000040015000237
:105D180000201500100200150012004015000801AF
:105D28000015000A2000150018400015001A080088
:105D380015000400011500061000150014000115D7
:105D48000016100015000C000115000E10001500BB
:105D58001C000115001E10001D06FFE115000000C3
:105D680000150020000015000100001500210000AA
:105D78001555000000155520001E15550100001589
:105D88005521001E152A400000152A600000152A1A
:105D980041001E152A61001E157F400000157F6016
:105DA800001E157F41001E157F61001E1D033F2048
:105DB800150400C0171514000003150500C00E15C2
:105DC8001500800F150600001B151600801D15070D
:105DD80000C01D1517000007150C00C01F151C007A
:105DE800801F150D00C008151D008009150E000044
:105DF8001A151E00801C150F00C018151F00000082
:105E08001D0680F81500787F071500007E0715002D
:105E1800407D071500207B071500607707150010E7
:105E28006F071500505F071500303F071500707F9A
:105E3800061500087F051500487F031500287F0711
:105E48001500687F071500187F071500587F07158C
:105E580000387F071D8680F81500787F0715000039
:105E68007E071500407D071500207B071500607729
:105E7800071500106F071500505F071500303F0722
:105E88001500707F061500087F051500487F03156B
:105E980000287F071500687F071500187F07150081
:105EA800587F071500387F071D06BFFE15141440DC
:105EB80000100116021400010F02160F1440000F03
:105EC8000F16021400010F02160F100A1440000FDB
:105ED8000F16021400010F02160F1440000F0F16C0
:105EE8000214000118400018400018400018400033
:105EF8001800011800011800011800011D0680F0A3
:105F08001200600F0F140408160E1402081808086F
:105F180018400818000A1801001810001820001866
:105F280000011800041804081200600F0F16F3147B
:105F3800020818080818400818000A180100181064
:105F4800001820001800011800041804081D06ABEA
:105F5800EA150000541515002054051500085411C1
:105F680015002854011500025414152000141515A5
:105F7800080044151502005015152A0200141522B0
:105F8800081011150822440411000001401B145484
:105F980015152A6A0014152B2A54011D06FFEF1542
:105FA8001E2E000015142500001607100F140010EF
:105FB800180000180010171001140000180010181D
:105FC800000018001010061800101800100F06180E
:105FD8000000180000180000180000180010180031
:105FE800101800101800101D02FE2F1500000110D7
:105FF8001502000010150400001015080000101507
:106008001000001015000101001500020100150024
:106018000401001500080100150A0A0000151405FE
:106028000000151E00001015000F0100151E0F00BE
:10603800001D82DF3F15000020001506092000150D
:10604800160D2000150E0B20001509122000151A38
:106058000E200015120C2000150300000015001872
:1060680000001500070000151C00000015031800AB
:1060780000151F180000151F1F00001D08DD9E15C4
:106088000000000015001000011500062000150092
:1060980016200115C000020015C0100201150C00E1
:1060A8000040150C100041150180002015019000DA
:1060B80021158904224115891400201544822241A2
:1060C80015891400201D06FF8312550216021400BC
:1060D80028126902180014157C0300001140000101
:1060E80000180000110002400018000011000040D4
:1060F800021800201800101800301800081800288E
:106108001800181800381800041800641800001D3A
:106118000EFF3FC015FC234000000012FD3340165F
:10612800171400003C160E1400C03F120130401630
:10613800171400C003160E1400000012693140162F
:106148001714000014160E14008016110000000227
:1061580004001B1400C03F1D02C3211503000000EA
:1061680010091608140400180C00181C00183C002C
:10617800183C02183C06183C0E183C1E0F01183833
:106188001E110200010018301E18201E10021804EB
:106198001E180C1C181C18183C10183C021D0278FC
:1061A80020151800801F153800010011300000006C
:1061B80016FC14000610061481191884040F06141E
:1061C800051B18050F10061484101804190F06145F
:1061D800850618870D10061406121801000F0614FC
:1061E800801F1D068FFE150D16600011000000604F
:1061F80014600016FF14500016F314100111040463
:10620800031814100116FF14200116F3146000116E
:10621800080200001410011100000F1E16FF1420C0
:106228000116F31460001D024F3E150110100111F4
:1062380000000A0A16FF14200116F314A000110228
:1062480008040416FF14900016F31410011100003E
:10625800020816FF14200116F314A00016FF14906C
:106268000016F31410011D02C93F15000922001180
:106278000000811216F414240016F714140011817A
:1062880000080416F414120016F714220011000076
:10629800810016F414240016F714140016F41412CE
:1062A8000016F71422001D057F0E150408000015BE
:1062B80037088031151508002115260880101204AA
:1062C8000816FD16F414000012370816FD16F4140B
:1062D800803112150816FD16F4140021122608162E
:1062E800FD16F41480101D06FC9F150808022015E1
:1062F800400101401210041603140240160D140246
:10630800201220021603140120160D140140123029
:10631800061603140240160D140220160314012059
:10632800160D1401401D02F93C153018000015B96E
:106338001C0603153918060015B01C0003120000CE
:106348001B1406031C1A763B153018000015361B63
:106358008904153618090015301B80041200001B2B
:106368001489041D06ABEA1500000000150200049C
:10637800001508001000152020401015000A00051F
:1063880015220844041508221011152A0254011573
:1063980000280014152A2A5415122B6A1B145415A8
:1063A8001D069FFC1501402002151004400112171C
:1063B800741604160C1420021211441604160C1438
:1063C80040011213641604160C1420021604160C4D
:1063D8001440011215541604160C1440011D06FC35
:1063E800FC153828030315544400001558480202C8
:1063F8001534240101157C6C03031B15282803039D
:106408001544440303150000030315484803031506
:1064180024240303156C6C03031D025F3F15020857
:10642800A000150404A000150802A00015050AA084
:1064380000150A14A00015001E2000150F0080008A
:10644800150F1E0000150000A00010051480001094
:10645800091B14A0001D06BFFE15201C4000151CBA
:1064680002000115103A4000152C240001150A16E7
:106478004000153608000115062E4000153A300078
:10648800011B150320400015036040011502600040
:10649800011D027E2F150000811015200001101526
:1064A800020181101524020110150804811015300D
:1064B800080110150A05811015340A0110153E004F
:1064C800001015000F8100153E0F00001D027F37D8
:1064D800153F1780001500000008153E170000152D
:1064E8003D070008153B1700001537070008152F52
:1064F800170000151F070008153F160000153F0577
:106508000008153F1300001D02DF3C1500002003A2
:106518001511080000150A04000015841000001564
:1065280083002002151C00000315001C2001159F84
:10653800000002151C1C000115831C2000159F1C5F
:1065480000001D02DF3C1500002003151108200380
:10655800150A042003158410200315830020021552
:106568001C00000315001C2001159F000002151CCB
:106578001C000115831C2000159F1C00001D06BF70
:1065880080152000403F152100405F152200406F14
:106598001523004077152400407B152500407D1504
:1065A8002600407E152700007F152B00407F1533FD
:1065B80000407F150300407F1D02FF2112A1011634
:1065C800F814000012B50118000A12AB01180014E3
:1065D80012A70118001812B90118000612BE0118F6
:1065E800001E0F0616F714000E18000618000218F1
:1065F80000001D025B3B1500000000151209A404F1
:10660800150201840015100820041B151B1BA40487
:10661800150912A404151209A40415000000001598
:106628000102840015081020041D06E1E1156060D0
:106638000000112020000016091410001601141083
:1066480010160914181016011418181609141C1815
:106658001601141C1C1609141C1E1601141E1E1DDE
:106668000687F0150140780F150040700F150100DE
:106678007807150240680F150440580F1506403872
:106688000F150720780B150710780D150730780EB1
:1066980015000070071D027F3F15000080001508D7
:1066A80010800015040880001502048000150102FE
:1066B8008000150318800015071C8000150F0000C6
:1066C8000015001E0000150F1E00001D825F371503
:1066D800000000001510140000150A02000015053E
:1066E8000100001503100008151C00200015000704
:1066F8008000151F102008151C07A000151F17A0E3
:10670800081D025F37150000000015101400001561
:106718000A02000015050100001503100008151CE9
:106728000020001500078000151F102008151C0701
:10673800A000151F17A0081D025F3F151B1BA00016
:10674800151A1B800015191B800015131B800015D6
:106758000B1B8000151B1A2000151B192000151B88
:10676800132000151B0B200015000000001D069FBC
:106778009E151F1E6061150F1E6021150F1C6041BC
:10678800150F1A6040150F162041150F0E204015E1
:106798000E1E4041150D1E4040150B1E00411507E9
:1067A8001E00401D06BFFE15001E4000153C0000DF
:1067B800011510240000150A080000150630000015
:1067C800152C3A40011536164001153A2E40011194
:1067D800000001401B1440011D025F3F1100001B17
:1067E8001B140000111B1B000014A0001101011A4A
:1067F8001A14A000110202191914A0001108081394
:106808001314A0001110100B0B14A0001D825F3F81
:106818001100001B1B140000111B1B000014A0001A
:106828001101011A1A14A000110202191914A0006A
:10683800110808131314A0001110100B0B14A0005A
:106848001D024F3E150110100115071C10011508F7
:1068580002A000150E0EA000120B1A1603149000C9
:10686800160B14100111020800001603142001165B
:106878000B14A0001D06BFFE15015E4000153D402B
:106888000001150B4800001507700000152D7A400F
:10689800011537564001153B6E4001151164000083
:1068A80011014000001440011D047F32150720002B
:1068B80000150120000016F2140008180000180046
:1068C8000816FF14000918800818800918000C1809
:1068D800000D18800C18800D1800081D0BCD360B04
:1068E80012000000160B15CC340300000012CC3047
:1068F800031832C904124410011822880012882093
:1069080002181041041B150100001041041D02F378
:10691800391500000C061502010C061520100C068E
:106928001591080C061522110C061583010804158B
:106938003018040215B301000415B31900001D0234
:10694800F3391500000C061502000806152000048E
:10695800061500010C041500100C02152100000694
:106968001580100C00151209000015B31900001D40
:10697800025F3F151F1B0000150008A00015041832
:10698800A000150308A000150809A00015071800A5
:106998000015180B000015100AA0000F0C14200099
:1069A8001D02DF3F15000020001508020000150435
:1069B8000100001502030000158100000015801277
:1069C8000000158009000015800700001510000060
:1069D800001D0687F0150770780F150100380E1591
:1069E8000110580D150500680B15051070071502E4
:1069F80000780E150300780E150120380F15014098
:106A0800380F1D06ABEA1500280014152A02540198
:106A1800152208440415082210111001100F1B1527
